{
  "_format": "hh-sol-artifact-1",
  "contractName": "BuildersFaucet",
  "sourceName": "contracts/BuildersFaucet.sol",
  "abi": [
    {
      "inputs": [],
      "stateMutability": "payable",
      "type": "constructor"
    },
    {
      "anonymous": false,
      "inputs": [
        {
          "indexed": true,
          "internalType": "address",
          "name": "userAddress",
          "type": "address"
        },
        {
          "indexed": false,
          "internalType": "uint256",
          "name": "weiAmount",
          "type": "uint256"
        },
        {
          "indexed": false,
          "internalType": "uint256",
          "name": "thisTotal",
          "type": "uint256"
        },
        {
          "indexed": false,
          "internalType": "uint256",
          "name": "totalContributors",
          "type": "uint256"
        }
      ],
      "name": "Deposited",
      "type": "event"
    },
    {
      "anonymous": false,
      "inputs": [
        {
          "indexed": true,
          "internalType": "address",
          "name": "userAddress",
          "type": "address"
        },
        {
          "indexed": false,
          "internalType": "uint256",
          "name": "weiAmount",
          "type": "uint256"
        },
        {
          "indexed": false,
          "internalType": "uint256",
          "name": "thisTotal",
          "type": "uint256"
        },
        {
          "indexed": false,
          "internalType": "uint256",
          "name": "totalRequests",
          "type": "uint256"
        }
      ],
      "name": "TokensSent",
      "type": "event"
    },
    {
      "inputs": [
        {
          "internalType": "address",
          "name": "",
          "type": "address"
        }
      ],
      "name": "contributors",
      "outputs": [
        {
          "internalType": "uint256",
          "name": "amtRequested",
          "type": "uint256"
        },
        {
          "internalType": "uint256",
          "name": "amtDeposited",
          "type": "uint256"
        },
        {
          "internalType": "uint256",
          "name": "lastTimeSentAt",
          "type": "uint256"
        },
        {
          "internalType": "bool",
          "name": "alreadyContributed",
          "type": "bool"
        }
      ],
      "stateMutability": "view",
      "type": "function"
    },
    {
      "inputs": [],
      "name": "deposit",
      "outputs": [],
      "stateMutability": "payable",
      "type": "function"
    },
    {
      "inputs": [
        {
          "internalType": "address",
          "name": "userAddress",
          "type": "address"
        }
      ],
      "name": "getTimeToWaitUntilNextRequest",
      "outputs": [
        {
          "internalType": "uint256",
          "name": "",
          "type": "uint256"
        }
      ],
      "stateMutability": "view",
      "type": "function"
    },
    {
      "inputs": [],
      "name": "getTotalContributors",
      "outputs": [
        {
          "internalType": "uint256",
          "name": "",
          "type": "uint256"
        }
      ],
      "stateMutability": "view",
      "type": "function"
    },
    {
      "inputs": [],
      "name": "getTotalFunds",
      "outputs": [
        {
          "internalType": "uint256",
          "name": "",
          "type": "uint256"
        }
      ],
      "stateMutability": "view",
      "type": "function"
    },
    {
      "inputs": [],
      "name": "getTotalRequests",
      "outputs": [
        {
          "internalType": "uint256",
          "name": "",
          "type": "uint256"
        }
      ],
      "stateMutability": "view",
      "type": "function"
    },
    {
      "inputs": [],
      "name": "gettotalContributed",
      "outputs": [
        {
          "internalType": "uint256",
          "name": "",
          "type": "uint256"
        }
      ],
      "stateMutability": "view",
      "type": "function"
    },
    {
      "inputs": [],
      "name": "owner",
      "outputs": [
        {
          "internalType": "address",
          "name": "",
          "type": "address"
        }
      ],
      "stateMutability": "view",
      "type": "function"
    },
    {
      "inputs": [],
      "name": "payOutAmt",
      "outputs": [
        {
          "internalType": "uint256",
          "name": "",
          "type": "uint256"
        }
      ],
      "stateMutability": "view",
      "type": "function"
    },
    {
      "inputs": [
        {
          "internalType": "address",
          "name": "userAddress",
          "type": "address"
        }
      ],
      "name": "sendTokensToAddress",
      "outputs": [],
      "stateMutability": "nonpayable",
      "type": "function"
    },
    {
      "inputs": [
        {
          "internalType": "uint256",
          "name": "weiAmtPayout",
          "type": "uint256"
        }
      ],
      "name": "setPayoutAmt",
      "outputs": [],
      "stateMutability": "nonpayable",
      "type": "function"
    },
    {
      "inputs": [],
      "name": "totalContributed",
      "outputs": [
        {
          "internalType": "uint256",
          "name": "",
          "type": "uint256"
        }
      ],
      "stateMutability": "view",
      "type": "function"
    },
    {
      "inputs": [],
      "name": "totalContributors",
      "outputs": [
        {
          "internalType": "uint256",
          "name": "",
          "type": "uint256"
        }
      ],
      "stateMutability": "view",
      "type": "function"
    },
    {
      "inputs": [],
      "name": "totalFunds",
      "outputs": [
        {
          "internalType": "uint256",
          "name": "",
          "type": "uint256"
        }
      ],
      "stateMutability": "view",
      "type": "function"
    },
    {
      "inputs": [],
      "name": "totalRequested",
      "outputs": [
        {
          "internalType": "uint256",
          "name": "",
          "type": "uint256"
        }
      ],
      "stateMutability": "view",
      "type": "function"
    },
    {
      "inputs": [],
      "name": "totalRequests",
      "outputs": [
        {
          "internalType": "uint256",
          "name": "",
          "type": "uint256"
        }
      ],
      "stateMutability": "view",
      "type": "function"
    }
  ],
  "bytecode": "0x608060405260008081905550600060028190555060006004819055506000600581905550600060038190555066b1a2bc2ec5000060018190555033600760006101000a81548173ffffffffffffffffffffffffffffffffffffffff021916908373ffffffffffffffffffffffffffffffffffffffff160217905550610d12806100896000396000f3fe6080604052600436106100f35760003560e01c8063b722d79a1161008a578063e156200c11610059578063e156200c146102fe578063eb8bbd2814610329578063f0e22d5214610354578063f251fc8c1461037f576100f3565b8063b722d79a14610275578063c5e82ce01461029e578063d0e30db0146102c9578063dc58a56c146102d3576100f3565b8063880b678d116100c6578063880b678d146101c95780638aea61dc146101f45780638da5cb5b1461021f578063968ed6001461024a576100f3565b8063023f4147146100f85780631f6d4942146101235780635aa4f8181461016357806379881ae21461018c575b600080fd5b34801561010457600080fd5b5061010d6103aa565b60405161011a9190610b16565b60405180910390f35b34801561012f57600080fd5b5061014a60048036038101906101459190610a7c565b6103b0565b60405161015a9493929190610b68565b60405180910390f35b34801561016f57600080fd5b5061018a60048036038101906101859190610a7c565b6103ed565b005b34801561019857600080fd5b506101b360048036038101906101ae9190610a7c565b6105f1565b6040516101c09190610b16565b60405180910390f35b3480156101d557600080fd5b506101de610704565b6040516101eb9190610b16565b60405180910390f35b34801561020057600080fd5b5061020961070a565b6040516102169190610b16565b60405180910390f35b34801561022b57600080fd5b50610234610710565b6040516102419190610afb565b60405180910390f35b34801561025657600080fd5b5061025f610736565b60405161026c9190610b16565b60405180910390f35b34801561028157600080fd5b5061029c60048036038101906102979190610aa5565b61073c565b005b3480156102aa57600080fd5b506102b36107a0565b6040516102c09190610b16565b60405180910390f35b6102d16107aa565b005b3480156102df57600080fd5b506102e8610a29565b6040516102f59190610b16565b60405180910390f35b34801561030a57600080fd5b50610313610a33565b6040516103209190610b16565b60405180910390f35b34801561033557600080fd5b5061033e610a39565b60405161034b9190610b16565b60405180910390f35b34801561036057600080fd5b50610369610a42565b6040516103769190610b16565b60405180910390f35b34801561038b57600080fd5b50610394610a4c565b6040516103a19190610b16565b60405180910390f35b60035481565b60066020528060005260406000206000915090508060000154908060010154908060020154908060030160009054906101000a900460ff16905084565b62015180600660003373ffffffffffffffffffffffffffffffffffffffff1673ffffffffffffffffffffffffffffffffffffffff168152602001908152602001600020600201544261043f9190610c03565b1161044957600080fd5b8073ffffffffffffffffffffffffffffffffffffffff166108fc6001549081150290604051600060405180830381858888f1935050505061048957600080fd5b6001546004546104999190610bad565b60048190555060016005546104ae9190610bad565b600581905550600154600660003373ffffffffffffffffffffffffffffffffffffffff1673ffffffffffffffffffffffffffffffffffffffff168152602001908152602001600020600001546105049190610bad565b600660003373ffffffffffffffffffffffffffffffffffffffff1673ffffffffffffffffffffffffffffffffffffffff1681526020019081526020016000206000018190555042600660003373ffffffffffffffffffffffffffffffffffffffff1673ffffffffffffffffffffffffffffffffffffffff168152602001908152602001600020600201819055508073ffffffffffffffffffffffffffffffffffffffff167f9d4d0aa8f79ddd9bf403146648b4eddbf76e8e92f3e307fdb7816ce98ff92510600154476005546040516105df93929190610b31565b60405180910390a24760008190555050565b600080600090506000600660008573ffffffffffffffffffffffffffffffffffffffff1673ffffffffffffffffffffffffffffffffffffffff1681526020019081526020016000206002015411156106fb574262015180600660008673ffffffffffffffffffffffffffffffffffffffff1673ffffffffffffffffffffffffffffffffffffffff168152602001908152602001600020600201546106959190610bad565b11156106fa574262015180600660008673ffffffffffffffffffffffffffffffffffffffff1673ffffffffffffffffffffffffffffffffffffffff168152602001908152602001600020600201546106ed9190610bad565b6106f79190610c03565b90505b5b80915050919050565b60045481565b60055481565b600760009054906101000a900473ffffffffffffffffffffffffffffffffffffffff1681565b60005481565b600760009054906101000a900473ffffffffffffffffffffffffffffffffffffffff1673ffffffffffffffffffffffffffffffffffffffff163373ffffffffffffffffffffffffffffffffffffffff161461079657600080fd5b8060018190555050565b6000600354905090565b60001515600660003373ffffffffffffffffffffffffffffffffffffffff1673ffffffffffffffffffffffffffffffffffffffff16815260200190815260200160002060030160009054906101000a900460ff16151514156109235760016002546108159190610bad565b600281905550346003546108299190610bad565b6003819055506001600660003373ffffffffffffffffffffffffffffffffffffffff1673ffffffffffffffffffffffffffffffffffffffff16815260200190815260200160002060030160006101000a81548160ff02191690831515021790555034600660003373ffffffffffffffffffffffffffffffffffffffff1673ffffffffffffffffffffffffffffffffffffffff168152602001908152602001600020600101546108d89190610bad565b600660003373ffffffffffffffffffffffffffffffffffffffff1673ffffffffffffffffffffffffffffffffffffffff168152602001908152602001600020600101819055506109cc565b346003546109319190610bad565b60038190555034600660003373ffffffffffffffffffffffffffffffffffffffff1673ffffffffffffffffffffffffffffffffffffffff168152602001908152602001600020600101546109859190610bad565b600660003373ffffffffffffffffffffffffffffffffffffffff1673ffffffffffffffffffffffffffffffffffffffff168152602001908152602001600020600101819055505b3373ffffffffffffffffffffffffffffffffffffffff167f91ede45f04a37a7c170f5c1207df3b6bc748dc1e04ad5e917a241d0f52feada33447600254604051610a1893929190610b31565b60405180910390a247600081905550565b6000600254905090565b60015481565b60008054905090565b6000600454905090565b60025481565b600081359050610a6181610cae565b92915050565b600081359050610a7681610cc5565b92915050565b600060208284031215610a8e57600080fd5b6000610a9c84828501610a52565b91505092915050565b600060208284031215610ab757600080fd5b6000610ac584828501610a67565b91505092915050565b610ad781610c37565b82525050565b610ae681610c49565b82525050565b610af581610c75565b82525050565b6000602082019050610b106000830184610ace565b92915050565b6000602082019050610b2b6000830184610aec565b92915050565b6000606082019050610b466000830186610aec565b610b536020830185610aec565b610b606040830184610aec565b949350505050565b6000608082019050610b7d6000830187610aec565b610b8a6020830186610aec565b610b976040830185610aec565b610ba46060830184610add565b95945050505050565b6000610bb882610c75565b9150610bc383610c75565b9250827fffffffffffffffffffffffffffffffffffffffffffffffffffffffffffffffff03821115610bf857610bf7610c7f565b5b828201905092915050565b6000610c0e82610c75565b9150610c1983610c75565b925082821015610c2c57610c2b610c7f565b5b828203905092915050565b6000610c4282610c55565b9050919050565b60008115159050919050565b600073ffffffffffffffffffffffffffffffffffffffff82169050919050565b6000819050919050565b7f4e487b7100000000000000000000000000000000000000000000000000000000600052601160045260246000fd5b610cb781610c37565b8114610cc257600080fd5b50565b610cce81610c75565b8114610cd957600080fd5b5056fea264697066735822122012154bdacecece69942036e13c5fa7cf49db0d7517b97007f35c73af491e490364736f6c63430008040033",
  "linkReferences": {},
  "deployedLinkReferences": {}
}