{
  "_format": "hh-sol-artifact-1",
  "contractName": "BuildersFaucet",
  "sourceName": "contracts/BuildersFaucet.sol",
  "abi": [
    {
      "inputs": [],
      "stateMutability": "payable",
      "type": "constructor"
    },
    {
      "anonymous": false,
      "inputs": [
        {
          "indexed": true,
          "internalType": "address",
          "name": "userAddress",
          "type": "address"
        },
        {
          "indexed": false,
          "internalType": "uint256",
          "name": "weiAmount",
          "type": "uint256"
        }
      ],
      "name": "Deposited",
      "type": "event"
    },
    {
      "anonymous": false,
      "inputs": [
        {
          "indexed": true,
          "internalType": "address",
          "name": "userAddress",
          "type": "address"
        },
        {
          "indexed": false,
          "internalType": "uint256",
          "name": "weiAmount",
          "type": "uint256"
        }
      ],
      "name": "TokensSent",
      "type": "event"
    },
    {
      "inputs": [],
      "name": "deposit",
      "outputs": [],
      "stateMutability": "payable",
      "type": "function"
    },
    {
      "inputs": [],
      "name": "getTotalFunds",
      "outputs": [
        {
          "internalType": "uint256",
          "name": "",
          "type": "uint256"
        }
      ],
      "stateMutability": "view",
      "type": "function"
    },
    {
      "inputs": [],
      "name": "owner",
      "outputs": [
        {
          "internalType": "address",
          "name": "",
          "type": "address"
        }
      ],
      "stateMutability": "view",
      "type": "function"
    },
    {
      "inputs": [],
      "name": "payOutAmt",
      "outputs": [
        {
          "internalType": "uint256",
          "name": "",
          "type": "uint256"
        }
      ],
      "stateMutability": "view",
      "type": "function"
    },
    {
      "inputs": [
        {
          "internalType": "address",
          "name": "userAddress",
          "type": "address"
        }
      ],
      "name": "sendTokensToAddress",
      "outputs": [],
      "stateMutability": "nonpayable",
      "type": "function"
    },
    {
      "inputs": [
        {
          "internalType": "uint256",
          "name": "weiAmtPayout",
          "type": "uint256"
        }
      ],
      "name": "setPayoutAmt",
      "outputs": [],
      "stateMutability": "nonpayable",
      "type": "function"
    },
    {
      "inputs": [],
      "name": "totalFunds",
      "outputs": [
        {
          "internalType": "uint256",
          "name": "",
          "type": "uint256"
        }
      ],
      "stateMutability": "view",
      "type": "function"
    }
  ],
  "bytecode": "0x60806040526000808190555061177060018190555033600260006101000a81548173ffffffffffffffffffffffffffffffffffffffff021916908373ffffffffffffffffffffffffffffffffffffffff16021790555061058e806100646000396000f3fe6080604052600436106100705760003560e01c8063b722d79a1161004e578063b722d79a146100f4578063d0e30db01461011d578063e156200c14610127578063eb8bbd281461015257610070565b80635aa4f818146100755780638da5cb5b1461009e578063968ed600146100c9575b600080fd5b34801561008157600080fd5b5061009c60048036038101906100979190610353565b61017d565b005b3480156100aa57600080fd5b506100b3610226565b6040516100c091906103d2565b60405180910390f35b3480156100d557600080fd5b506100de61024c565b6040516100eb9190610408565b60405180910390f35b34801561010057600080fd5b5061011b6004803603810190610116919061037c565b610252565b005b6101256102b6565b005b34801561013357600080fd5b5061013c61031a565b6040516101499190610408565b60405180910390f35b34801561015e57600080fd5b50610167610320565b6040516101749190610408565b60405180910390f35b8073ffffffffffffffffffffffffffffffffffffffff166108fc6117709081150290604051600060405180830381858888f193505050506101bd57600080fd5b6117706000546101cd9190610479565b6000819055508073ffffffffffffffffffffffffffffffffffffffff167ff18d5a93c62c1d0c761ed52107f11d20bc2071851206b79c4dd3283bd9f006f161177060405161021b91906103ed565b60405180910390a250565b600260009054906101000a900473ffffffffffffffffffffffffffffffffffffffff1681565b60005481565b600260009054906101000a900473ffffffffffffffffffffffffffffffffffffffff1673ffffffffffffffffffffffffffffffffffffffff163373ffffffffffffffffffffffffffffffffffffffff16146102ac57600080fd5b8060018190555050565b3373ffffffffffffffffffffffffffffffffffffffff167f2da466a7b24304f47e87fa2e1e5a81b9831ce54fec19055ce277ca2f39ba42c4346040516102fc9190610408565b60405180910390a2346000546103129190610423565b600081905550565b60015481565b60008054905090565b6000813590506103388161052a565b92915050565b60008135905061034d81610541565b92915050565b60006020828403121561036557600080fd5b600061037384828501610329565b91505092915050565b60006020828403121561038e57600080fd5b600061039c8482850161033e565b91505092915050565b6103ae816104ad565b82525050565b6103bd816104e9565b82525050565b6103cc816104df565b82525050565b60006020820190506103e760008301846103a5565b92915050565b600060208201905061040260008301846103b4565b92915050565b600060208201905061041d60008301846103c3565b92915050565b600061042e826104df565b9150610439836104df565b9250827fffffffffffffffffffffffffffffffffffffffffffffffffffffffffffffffff0382111561046e5761046d6104fb565b5b828201905092915050565b6000610484826104df565b915061048f836104df565b9250828210156104a2576104a16104fb565b5b828203905092915050565b60006104b8826104bf565b9050919050565b600073ffffffffffffffffffffffffffffffffffffffff82169050919050565b6000819050919050565b60006104f4826104df565b9050919050565b7f4e487b7100000000000000000000000000000000000000000000000000000000600052601160045260246000fd5b610533816104ad565b811461053e57600080fd5b50565b61054a816104df565b811461055557600080fd5b5056fea26469706673582212200a6a8f97fa8f4189e3d969aeba4118a024d3d02e63bcdfe383bf14d01701f23564736f6c63430008040033",
  "linkReferences": {},
  "deployedLinkReferences": {}
}